{
  "_format": "hh-sol-artifact-1",
  "contractName": "AntevortaGold",
  "sourceName": "contracts/AnteVortaGold.sol",
  "abi": [
    {
      "inputs": [],
      "stateMutability": "nonpayable",
      "type": "constructor"
    },
    {
      "anonymous": false,
      "inputs": [
        {
          "indexed": true,
          "internalType": "address",
          "name": "owner",
          "type": "address"
        },
        {
          "indexed": true,
          "internalType": "address",
          "name": "approved",
          "type": "address"
        },
        {
          "indexed": true,
          "internalType": "uint256",
          "name": "tokenId",
          "type": "uint256"
        }
      ],
      "name": "Approval",
      "type": "event"
    },
    {
      "anonymous": false,
      "inputs": [
        {
          "indexed": true,
          "internalType": "address",
          "name": "owner",
          "type": "address"
        },
        {
          "indexed": true,
          "internalType": "address",
          "name": "operator",
          "type": "address"
        },
        {
          "indexed": false,
          "internalType": "bool",
          "name": "approved",
          "type": "bool"
        }
      ],
      "name": "ApprovalForAll",
      "type": "event"
    },
    {
      "anonymous": false,
      "inputs": [
        {
          "indexed": false,
          "internalType": "uint256",
          "name": "_fromTokenId",
          "type": "uint256"
        },
        {
          "indexed": false,
          "internalType": "uint256",
          "name": "_toTokenId",
          "type": "uint256"
        }
      ],
      "name": "BatchMetadataUpdate",
      "type": "event"
    },
    {
      "anonymous": false,
      "inputs": [
        {
          "indexed": true,
          "internalType": "uint256",
          "name": "tokenId",
          "type": "uint256"
        },
        {
          "indexed": false,
          "internalType": "string",
          "name": "newTokenURI",
          "type": "string"
        }
      ],
      "name": "GoldMetadataUpdated",
      "type": "event"
    },
    {
      "anonymous": false,
      "inputs": [
        {
          "indexed": true,
          "internalType": "address",
          "name": "to",
          "type": "address"
        },
        {
          "indexed": true,
          "internalType": "uint256",
          "name": "tokenId",
          "type": "uint256"
        },
        {
          "indexed": false,
          "internalType": "string",
          "name": "tokenURI",
          "type": "string"
        }
      ],
      "name": "GoldTokenMinted",
      "type": "event"
    },
    {
      "anonymous": false,
      "inputs": [
        {
          "indexed": true,
          "internalType": "address",
          "name": "from",
          "type": "address"
        },
        {
          "indexed": true,
          "internalType": "address",
          "name": "to",
          "type": "address"
        },
        {
          "indexed": true,
          "internalType": "uint256",
          "name": "tokenId",
          "type": "uint256"
        }
      ],
      "name": "GoldTokenRecovered",
      "type": "event"
    },
    {
      "anonymous": false,
      "inputs": [
        {
          "indexed": false,
          "internalType": "uint256",
          "name": "_tokenId",
          "type": "uint256"
        }
      ],
      "name": "MetadataUpdate",
      "type": "event"
    },
    {
      "anonymous": false,
      "inputs": [
        {
          "indexed": false,
          "internalType": "address",
          "name": "account",
          "type": "address"
        }
      ],
      "name": "Paused",
      "type": "event"
    },
    {
      "anonymous": false,
      "inputs": [
        {
          "indexed": true,
          "internalType": "bytes32",
          "name": "role",
          "type": "bytes32"
        },
        {
          "indexed": true,
          "internalType": "bytes32",
          "name": "previousAdminRole",
          "type": "bytes32"
        },
        {
          "indexed": true,
          "internalType": "bytes32",
          "name": "newAdminRole",
          "type": "bytes32"
        }
      ],
      "name": "RoleAdminChanged",
      "type": "event"
    },
    {
      "anonymous": false,
      "inputs": [
        {
          "indexed": true,
          "internalType": "bytes32",
          "name": "role",
          "type": "bytes32"
        },
        {
          "indexed": true,
          "internalType": "address",
          "name": "account",
          "type": "address"
        },
        {
          "indexed": true,
          "internalType": "address",
          "name": "sender",
          "type": "address"
        }
      ],
      "name": "RoleGranted",
      "type": "event"
    },
    {
      "anonymous": false,
      "inputs": [
        {
          "indexed": true,
          "internalType": "bytes32",
          "name": "role",
          "type": "bytes32"
        },
        {
          "indexed": true,
          "internalType": "address",
          "name": "account",
          "type": "address"
        },
        {
          "indexed": true,
          "internalType": "address",
          "name": "sender",
          "type": "address"
        }
      ],
      "name": "RoleRevoked",
      "type": "event"
    },
    {
      "anonymous": false,
      "inputs": [
        {
          "indexed": true,
          "internalType": "address",
          "name": "recipient",
          "type": "address"
        },
        {
          "indexed": false,
          "internalType": "uint96",
          "name": "feeNumerator",
          "type": "uint96"
        }
      ],
      "name": "RoyaltyInfoUpdated",
      "type": "event"
    },
    {
      "anonymous": false,
      "inputs": [
        {
          "indexed": true,
          "internalType": "address",
          "name": "from",
          "type": "address"
        },
        {
          "indexed": true,
          "internalType": "address",
          "name": "to",
          "type": "address"
        },
        {
          "indexed": true,
          "internalType": "uint256",
          "name": "tokenId",
          "type": "uint256"
        }
      ],
      "name": "Transfer",
      "type": "event"
    },
    {
      "anonymous": false,
      "inputs": [
        {
          "indexed": false,
          "internalType": "address",
          "name": "account",
          "type": "address"
        }
      ],
      "name": "Unpaused",
      "type": "event"
    },
    {
      "inputs": [],
      "name": "DEFAULT_ADMIN_ROLE",
      "outputs": [
        {
          "internalType": "bytes32",
          "name": "",
          "type": "bytes32"
        }
      ],
      "stateMutability": "view",
      "type": "function"
    },
    {
      "inputs": [],
      "name": "GOLD_MINTER_ROLE",
      "outputs": [
        {
          "internalType": "bytes32",
          "name": "",
          "type": "bytes32"
        }
      ],
      "stateMutability": "view",
      "type": "function"
    },
    {
      "inputs": [],
      "name": "VAULT_KEEPER_ROLE",
      "outputs": [
        {
          "internalType": "bytes32",
          "name": "",
          "type": "bytes32"
        }
      ],
      "stateMutability": "view",
      "type": "function"
    },
    {
      "inputs": [
        {
          "internalType": "address",
          "name": "to",
          "type": "address"
        },
        {
          "internalType": "uint256",
          "name": "tokenId",
          "type": "uint256"
        }
      ],
      "name": "approve",
      "outputs": [],
      "stateMutability": "nonpayable",
      "type": "function"
    },
    {
      "inputs": [
        {
          "internalType": "address",
          "name": "owner",
          "type": "address"
        }
      ],
      "name": "balanceOf",
      "outputs": [
        {
          "internalType": "uint256",
          "name": "",
          "type": "uint256"
        }
      ],
      "stateMutability": "view",
      "type": "function"
    },
    {
      "inputs": [
        {
          "internalType": "uint256",
          "name": "tokenId",
          "type": "uint256"
        }
      ],
      "name": "getApproved",
      "outputs": [
        {
          "internalType": "address",
          "name": "",
          "type": "address"
        }
      ],
      "stateMutability": "view",
      "type": "function"
    },
    {
      "inputs": [
        {
          "internalType": "bytes32",
          "name": "role",
          "type": "bytes32"
        }
      ],
      "name": "getRoleAdmin",
      "outputs": [
        {
          "internalType": "bytes32",
          "name": "",
          "type": "bytes32"
        }
      ],
      "stateMutability": "view",
      "type": "function"
    },
    {
      "inputs": [],
      "name": "goldBurnAddress",
      "outputs": [
        {
          "internalType": "address",
          "name": "",
          "type": "address"
        }
      ],
      "stateMutability": "view",
      "type": "function"
    },
    {
      "inputs": [
        {
          "internalType": "bytes32",
          "name": "role",
          "type": "bytes32"
        },
        {
          "internalType": "address",
          "name": "account",
          "type": "address"
        }
      ],
      "name": "grantRole",
      "outputs": [],
      "stateMutability": "nonpayable",
      "type": "function"
    },
    {
      "inputs": [
        {
          "internalType": "bytes32",
          "name": "role",
          "type": "bytes32"
        },
        {
          "internalType": "address",
          "name": "account",
          "type": "address"
        }
      ],
      "name": "hasRole",
      "outputs": [
        {
          "internalType": "bool",
          "name": "",
          "type": "bool"
        }
      ],
      "stateMutability": "view",
      "type": "function"
    },
    {
      "inputs": [
        {
          "internalType": "address",
          "name": "owner",
          "type": "address"
        },
        {
          "internalType": "address",
          "name": "operator",
          "type": "address"
        }
      ],
      "name": "isApprovedForAll",
      "outputs": [
        {
          "internalType": "bool",
          "name": "",
          "type": "bool"
        }
      ],
      "stateMutability": "view",
      "type": "function"
    },
    {
      "inputs": [
        {
          "internalType": "address",
          "name": "to",
          "type": "address"
        },
        {
          "internalType": "string",
          "name": "goldTokenURI",
          "type": "string"
        }
      ],
      "name": "mintGoldToken",
      "outputs": [],
      "stateMutability": "nonpayable",
      "type": "function"
    },
    {
      "inputs": [],
      "name": "name",
      "outputs": [
        {
          "internalType": "string",
          "name": "",
          "type": "string"
        }
      ],
      "stateMutability": "view",
      "type": "function"
    },
    {
      "inputs": [
        {
          "internalType": "uint256",
          "name": "tokenId",
          "type": "uint256"
        }
      ],
      "name": "ownerOf",
      "outputs": [
        {
          "internalType": "address",
          "name": "",
          "type": "address"
        }
      ],
      "stateMutability": "view",
      "type": "function"
    },
    {
      "inputs": [],
      "name": "pauseGoldTransfers",
      "outputs": [],
      "stateMutability": "nonpayable",
      "type": "function"
    },
    {
      "inputs": [],
      "name": "paused",
      "outputs": [
        {
          "internalType": "bool",
          "name": "",
          "type": "bool"
        }
      ],
      "stateMutability": "view",
      "type": "function"
    },
    {
      "inputs": [
        {
          "internalType": "address",
          "name": "from",
          "type": "address"
        },
        {
          "internalType": "uint256",
          "name": "goldTokenId",
          "type": "uint256"
        }
      ],
      "name": "recoverGoldToken",
      "outputs": [],
      "stateMutability": "nonpayable",
      "type": "function"
    },
    {
      "inputs": [
        {
          "internalType": "uint256",
          "name": "goldTokenId",
          "type": "uint256"
        }
      ],
      "name": "redeemGoldToken",
      "outputs": [],
      "stateMutability": "nonpayable",
      "type": "function"
    },
    {
      "inputs": [
        {
          "internalType": "bytes32",
          "name": "role",
          "type": "bytes32"
        },
        {
          "internalType": "address",
          "name": "account",
          "type": "address"
        }
      ],
      "name": "renounceRole",
      "outputs": [],
      "stateMutability": "nonpayable",
      "type": "function"
    },
    {
      "inputs": [
        {
          "internalType": "bytes32",
          "name": "role",
          "type": "bytes32"
        },
        {
          "internalType": "address",
          "name": "account",
          "type": "address"
        }
      ],
      "name": "revokeRole",
      "outputs": [],
      "stateMutability": "nonpayable",
      "type": "function"
    },
    {
      "inputs": [
        {
          "internalType": "uint256",
          "name": "tokenId",
          "type": "uint256"
        },
        {
          "internalType": "uint256",
          "name": "salePrice",
          "type": "uint256"
        }
      ],
      "name": "royaltyInfo",
      "outputs": [
        {
          "internalType": "address",
          "name": "",
          "type": "address"
        },
        {
          "internalType": "uint256",
          "name": "",
          "type": "uint256"
        }
      ],
      "stateMutability": "view",
      "type": "function"
    },
    {
      "inputs": [
        {
          "internalType": "address",
          "name": "from",
          "type": "address"
        },
        {
          "internalType": "address",
          "name": "to",
          "type": "address"
        },
        {
          "internalType": "uint256",
          "name": "tokenId",
          "type": "uint256"
        }
      ],
      "name": "safeTransferFrom",
      "outputs": [],
      "stateMutability": "nonpayable",
      "type": "function"
    },
    {
      "inputs": [
        {
          "internalType": "address",
          "name": "from",
          "type": "address"
        },
        {
          "internalType": "address",
          "name": "to",
          "type": "address"
        },
        {
          "internalType": "uint256",
          "name": "tokenId",
          "type": "uint256"
        },
        {
          "internalType": "bytes",
          "name": "data",
          "type": "bytes"
        }
      ],
      "name": "safeTransferFrom",
      "outputs": [],
      "stateMutability": "nonpayable",
      "type": "function"
    },
    {
      "inputs": [
        {
          "internalType": "address",
          "name": "operator",
          "type": "address"
        },
        {
          "internalType": "bool",
          "name": "approved",
          "type": "bool"
        }
      ],
      "name": "setApprovalForAll",
      "outputs": [],
      "stateMutability": "nonpayable",
      "type": "function"
    },
    {
      "inputs": [
        {
          "internalType": "address",
          "name": "newGoldBurnAddress",
          "type": "address"
        }
      ],
      "name": "setGoldBurnAddress",
      "outputs": [],
      "stateMutability": "nonpayable",
      "type": "function"
    },
    {
      "inputs": [
        {
          "internalType": "address",
          "name": "royaltyRecipient",
          "type": "address"
        },
        {
          "internalType": "uint96",
          "name": "royaltyFeeBps",
          "type": "uint96"
        }
      ],
      "name": "setGoldRoyaltyInfo",
      "outputs": [],
      "stateMutability": "nonpayable",
      "type": "function"
    },
    {
      "inputs": [
        {
          "internalType": "address",
          "name": "newVaultRecoveryAddress",
          "type": "address"
        }
      ],
      "name": "setVaultRecoveryAddress",
      "outputs": [],
      "stateMutability": "nonpayable",
      "type": "function"
    },
    {
      "inputs": [
        {
          "internalType": "bytes4",
          "name": "interfaceId",
          "type": "bytes4"
        }
      ],
      "name": "supportsInterface",
      "outputs": [
        {
          "internalType": "bool",
          "name": "",
          "type": "bool"
        }
      ],
      "stateMutability": "view",
      "type": "function"
    },
    {
      "inputs": [],
      "name": "symbol",
      "outputs": [
        {
          "internalType": "string",
          "name": "",
          "type": "string"
        }
      ],
      "stateMutability": "view",
      "type": "function"
    },
    {
      "inputs": [
        {
          "internalType": "uint256",
          "name": "tokenId",
          "type": "uint256"
        }
      ],
      "name": "tokenURI",
      "outputs": [
        {
          "internalType": "string",
          "name": "",
          "type": "string"
        }
      ],
      "stateMutability": "view",
      "type": "function"
    },
    {
      "inputs": [],
      "name": "totalGoldSupply",
      "outputs": [
        {
          "internalType": "uint256",
          "name": "",
          "type": "uint256"
        }
      ],
      "stateMutability": "view",
      "type": "function"
    },
    {
      "inputs": [
        {
          "internalType": "address",
          "name": "from",
          "type": "address"
        },
        {
          "internalType": "address",
          "name": "to",
          "type": "address"
        },
        {
          "internalType": "uint256",
          "name": "tokenId",
          "type": "uint256"
        }
      ],
      "name": "transferFrom",
      "outputs": [],
      "stateMutability": "nonpayable",
      "type": "function"
    },
    {
      "inputs": [],
      "name": "unpauseGoldTransfers",
      "outputs": [],
      "stateMutability": "nonpayable",
      "type": "function"
    },
    {
      "inputs": [
        {
          "internalType": "uint256",
          "name": "goldTokenId",
          "type": "uint256"
        },
        {
          "internalType": "string",
          "name": "goldTokenURI",
          "type": "string"
        }
      ],
      "name": "updateGoldMetadata",
      "outputs": [],
      "stateMutability": "nonpayable",
      "type": "function"
    },
    {
      "inputs": [],
      "name": "vaultRecoveryAddress",
      "outputs": [
        {
          "internalType": "address",
          "name": "",
          "type": "address"
        }
      ],
      "stateMutability": "view",
      "type": "function"
    }
  ],
  "bytecode": "0x6080604052600980546001600160a01b03191690553480156200002157600080fd5b50336040518060400160405280600d81526020016c105b9d195d9bdc9d1851dbdb19609a1b8152506040518060400160405280600481526020016311d3d31160e21b815250816000908162000077919062000376565b50600162000086828262000376565b5050600880546001600160a01b03909316610100026001600160a81b03199093169290921790915550620000bc60003362000127565b620000e87ff11c4f38ebd2eb8fba95a6d68bd60047ded47f435dfd1131cecee0e65141db453362000127565b620001147fec4745bc4e719845cdea1f2d6472e109b5e0456484f7100a95277f0026e17c163362000127565b620001213360fa620001cc565b62000442565b60008281526007602090815260408083206001600160a01b038516845290915290205460ff16620001c85760008281526007602090815260408083206001600160a01b03851684529091529020805460ff19166001179055620001873390565b6001600160a01b0316816001600160a01b0316837f2f8788117e7eff1d82e926ec794901d17c78024a50270940304540a733656f0d60405160405180910390a45b5050565b6127106001600160601b0382161115620002405760405162461bcd60e51b815260206004820152602a60248201527f455243323938313a20726f79616c7479206665652077696c6c206578636565646044820152692073616c65507269636560b01b60648201526084015b60405180910390fd5b6001600160a01b038216620002985760405162461bcd60e51b815260206004820152601960248201527f455243323938313a20696e76616c696420726563656976657200000000000000604482015260640162000237565b604080518082019091526001600160a01b039092168083526001600160601b039091166020909201829052600160a01b90910217600a55565b634e487b7160e01b600052604160045260246000fd5b600181811c90821680620002fc57607f821691505b6020821081036200031d57634e487b7160e01b600052602260045260246000fd5b50919050565b601f8211156200037157600081815260208120601f850160051c810160208610156200034c5750805b601f850160051c820191505b818110156200036d5782815560010162000358565b5050505b505050565b81516001600160401b03811115620003925762000392620002d1565b620003aa81620003a38454620002e7565b8462000323565b602080601f831160018114620003e25760008415620003c95750858301515b600019600386901b1c1916600185901b1785556200036d565b600085815260208120601f198616915b828110156200041357888601518255948401946001909101908401620003f2565b5085821015620004325787850151600019600388901b60f8161c191681555b5050505050600190811b01905550565b6127df80620004526000396000f3fe608060405234801561001057600080fd5b50600436106102115760003560e01c80636352211e11610125578063b88d4fde116100ad578063c9ec63d71161007c578063c9ec63d7146104b7578063d0dc5446146104bf578063d547741f146104d2578063e985e9c5146104e5578063f8f938421461052157600080fd5b8063b88d4fde14610457578063c74f5f951461046a578063c87b56dd14610491578063c9a443af146104a457600080fd5b806378310866116100f4578063783108661461040e57806391d148541461042157806395d89b4114610434578063a217fddf1461043c578063a22cb4651461044457600080fd5b80636352211e146103c8578063668a1705146103db5780636a3a202e146103e357806370a08231146103fb57600080fd5b80632df2e38f116101a85780633ff2962e116101775780633ff2962e1461036857806342842e0e1461038f5780634cfc8dc8146103a25780634d7559a8146103b55780635c975abb146103bd57600080fd5b80632df2e38f1461031c5780632f2ff15d1461032f57806336568abe146103425780633d21e8221461035557600080fd5b80630ff741f1116101e45780630ff741f11461029357806323b872dd146102a6578063248a9ca3146102b95780632a55205a146102ea57600080fd5b806301ffc9a71461021657806306fdde031461023e578063081812fc14610253578063095ea7b31461027e575b600080fd5b610229610224366004611fdf565b610534565b60405190151581526020015b60405180910390f35b610246610545565b604051610235919061204c565b61026661026136600461205f565b6105d7565b6040516001600160a01b039091168152602001610235565b61029161028c366004612094565b6105fe565b005b6102916102a1366004612094565b610718565b6102916102b43660046120be565b6107bc565b6102dc6102c736600461205f565b60009081526007602052604090206001015490565b604051908152602001610235565b6102fd6102f83660046120fa565b6107ee565b604080516001600160a01b039093168352602083019190915201610235565b61029161032a36600461205f565b61089a565b61029161033d36600461211c565b610984565b61029161035036600461211c565b6109a9565b610291610363366004612148565b610a27565b6102dc7ff11c4f38ebd2eb8fba95a6d68bd60047ded47f435dfd1131cecee0e65141db4581565b61029161039d3660046120be565b610b5e565b6102916103b036600461218b565b610b79565b6102dc610ba3565b60085460ff16610229565b6102666103d636600461205f565b610bb3565b610291610c13565b6008546102669061010090046001600160a01b031681565b6102dc61040936600461218b565b610c45565b600954610266906001600160a01b031681565b61022961042f36600461211c565b610ccb565b610246610cf6565b6102dc600081565b6102916104523660046121a6565b610d05565b610291610465366004612263565b610d10565b6102dc7fec4745bc4e719845cdea1f2d6472e109b5e0456484f7100a95277f0026e17c1681565b61024661049f36600461205f565b610d48565b6102916104b236600461218b565b610d53565b610291610df7565b6102916104cd3660046122ff565b610e29565b6102916104e036600461211c565b610ec1565b6102296104f3366004612346565b6001600160a01b03918216600090815260056020908152604080832093909416825291909152205460ff1690565b61029161052f366004612370565b610ee6565b600061053f82610f87565b92915050565b606060008054610554906123a8565b80601f0160208091040260200160405190810160405280929190818152602001828054610580906123a8565b80156105cd5780601f106105a2576101008083540402835291602001916105cd565b820191906000526020600020905b8154815290600101906020018083116105b057829003601f168201915b5050505050905090565b60006105e282610fac565b506000908152600460205260409020546001600160a01b031690565b600061060982610bb3565b9050806001600160a01b0316836001600160a01b03160361067b5760405162461bcd60e51b815260206004820152602160248201527f4552433732313a20617070726f76616c20746f2063757272656e74206f776e656044820152603960f91b60648201526084015b60405180910390fd5b336001600160a01b0382161480610697575061069781336104f3565b6107095760405162461bcd60e51b815260206004820152603d60248201527f4552433732313a20617070726f76652063616c6c6572206973206e6f7420746f60448201527f6b656e206f776e6572206f7220617070726f76656420666f7220616c6c0000006064820152608401610672565b610713838361100b565b505050565b600061072381611079565b6000828152600260205260409020546001600160a01b03166107575760405162461bcd60e51b8152600401610672906123e2565b60085461077490849061010090046001600160a01b031684611083565b60085460405183916001600160a01b03610100909104811691908616907f0d499c212f98b1966a7c1e751942e9bffe9b2103089d15ac86921325fd4c312890600090a4505050565b6107c7335b826111f4565b6107e35760405162461bcd60e51b81526004016106729061242a565b610713838383611083565b6000828152600b602090815260408083208151808301909252546001600160a01b038116808352600160a01b9091046001600160601b0316928201929092528291610863575060408051808201909152600a546001600160a01b0381168252600160a01b90046001600160601b031660208201525b602081015160009061271090610882906001600160601b03168761248d565b61088c91906124a4565b915196919550909350505050565b6108a3336107c1565b6109075760405162461bcd60e51b815260206004820152602f60248201527f416e7465766f727461476f6c643a2043616c6c6572206973206e6f74206f776e60448201526e195c881b9bdc88185c1c1c9bdd9959608a1b6064820152608401610672565b6009546001600160a01b031661096b5760405162461bcd60e51b815260206004820152602360248201527f416e7465766f727461476f6c643a204275726e2061646472657373206e6f74206044820152621cd95d60ea1b6064820152608401610672565b610981336009546001600160a01b031683610b5e565b50565b60008281526007602052604090206001015461099f81611079565b6107138383611273565b6001600160a01b0381163314610a195760405162461bcd60e51b815260206004820152602f60248201527f416363657373436f6e74726f6c3a2063616e206f6e6c792072656e6f756e636560448201526e103937b632b9903337b91039b2b63360891b6064820152608401610672565b610a2382826112f9565b5050565b6000610a3281611079565b6001600160a01b038316610a995760405162461bcd60e51b815260206004820152602860248201527f416e7465766f727461476f6c643a20496e76616c696420726f79616c747920726044820152671958da5c1a595b9d60c21b6064820152608401610672565b612710826001600160601b03161115610b075760405162461bcd60e51b815260206004820152602a60248201527f416e7465766f727461476f6c643a20526f79616c7479206665652065786365656044820152696473206d6178696d756d60b01b6064820152608401610672565b610b118383611360565b6040516001600160601b03831681526001600160a01b038416907fae1d656a1268648b04ffa79c1416f05879338ae295aae3234d8db217356a1c62906020015b60405180910390a2505050565b61071383838360405180602001604052806000815250610d10565b6000610b8481611079565b600980546001600160a01b0319166001600160a01b0384161790555050565b6000610bae600c5490565b905090565b6000818152600260205260408120546001600160a01b03168061053f5760405162461bcd60e51b8152602060048201526018602482015277115490cdcc8c4e881a5b9d985b1a59081d1bdad95b88125160421b6044820152606401610672565b7fec4745bc4e719845cdea1f2d6472e109b5e0456484f7100a95277f0026e17c16610c3d81611079565b61098161145d565b60006001600160a01b038216610caf5760405162461bcd60e51b815260206004820152602960248201527f4552433732313a2061646472657373207a65726f206973206e6f7420612076616044820152683634b21037bbb732b960b91b6064820152608401610672565b506001600160a01b031660009081526003602052604090205490565b60009182526007602090815260408084206001600160a01b0393909316845291905290205460ff1690565b606060018054610554906123a8565b610a233383836114b7565b610d1a33836111f4565b610d365760405162461bcd60e51b81526004016106729061242a565b610d4284848484611585565b50505050565b606061053f826115b8565b6000610d5e81611079565b6001600160a01b038216610dd35760405162461bcd60e51b815260206004820152603660248201527f416e7465766f727461476f6c643a205265636f7665727920616464726573732060448201527563616e6e6f74206265207a65726f206164647265737360501b6064820152608401610672565b60088054610100600160a81b0319166101006001600160a01b038516021790555050565b7fec4745bc4e719845cdea1f2d6472e109b5e0456484f7100a95277f0026e17c16610e2181611079565b6109816116c0565b7ff11c4f38ebd2eb8fba95a6d68bd60047ded47f435dfd1131cecee0e65141db45610e5381611079565b6000838152600260205260409020546001600160a01b0316610e875760405162461bcd60e51b8152600401610672906123e2565b610e9183836116f9565b827f36b6434edb69fa91a0cc76c486919983f5dca585c117a44cdef66d0f003f437b83604051610b51919061204c565b600082815260076020526040902060010154610edc81611079565b61071383836112f9565b7ff11c4f38ebd2eb8fba95a6d68bd60047ded47f435dfd1131cecee0e65141db45610f1081611079565b6000610f1b600c5490565b9050610f2784826117c4565b610f3181846116f9565b610f3f600c80546001019055565b80846001600160a01b03167ffbac3809915cdeeb2283e88aa310bcacbac7d64cfc98077b16acc351e52f948a85604051610f79919061204c565b60405180910390a350505050565b60006001600160e01b0319821663152a902d60e11b148061053f575061053f826117de565b6000818152600260205260409020546001600160a01b03166109815760405162461bcd60e51b8152602060048201526018602482015277115490cdcc8c4e881a5b9d985b1a59081d1bdad95b88125160421b6044820152606401610672565b600081815260046020526040902080546001600160a01b0319166001600160a01b038416908117909155819061104082610bb3565b6001600160a01b03167f8c5be1e5ebec7d5bd14f71427d1e84f3dd0314c0f7b2291e5b200ac8c7c3b92560405160405180910390a45050565b6109818133611803565b826001600160a01b031661109682610bb3565b6001600160a01b0316146110bc5760405162461bcd60e51b8152600401610672906124c6565b6001600160a01b03821661111e5760405162461bcd60e51b8152602060048201526024808201527f4552433732313a207472616e7366657220746f20746865207a65726f206164646044820152637265737360e01b6064820152608401610672565b61112b838383600161185c565b826001600160a01b031661113e82610bb3565b6001600160a01b0316146111645760405162461bcd60e51b8152600401610672906124c6565b600081815260046020908152604080832080546001600160a01b03199081169091556001600160a01b0387811680865260038552838620805460001901905590871680865283862080546001019055868652600290945282852080549092168417909155905184937fddf252ad1be2c89b69c2b068fc378daa952ba7f163c4a11628f55a4df523b3ef91a4505050565b60008061120083610bb3565b9050806001600160a01b0316846001600160a01b0316148061124757506001600160a01b0380821660009081526005602090815260408083209388168352929052205460ff165b8061126b5750836001600160a01b0316611260846105d7565b6001600160a01b0316145b949350505050565b61127d8282610ccb565b610a235760008281526007602090815260408083206001600160a01b03851684529091529020805460ff191660011790556112b53390565b6001600160a01b0316816001600160a01b0316837f2f8788117e7eff1d82e926ec794901d17c78024a50270940304540a733656f0d60405160405180910390a45050565b6113038282610ccb565b15610a235760008281526007602090815260408083206001600160a01b0385168085529252808320805460ff1916905551339285917ff6391f5c32d9c69d2a47ea670b442974b53935d1edc7fd64eb21e047a839171b9190a45050565b6127106001600160601b03821611156113ce5760405162461bcd60e51b815260206004820152602a60248201527f455243323938313a20726f79616c7479206665652077696c6c206578636565646044820152692073616c65507269636560b01b6064820152608401610672565b6001600160a01b0382166114245760405162461bcd60e51b815260206004820152601960248201527f455243323938313a20696e76616c6964207265636569766572000000000000006044820152606401610672565b604080518082019091526001600160a01b039092168083526001600160601b039091166020909201829052600160a01b90910217600a55565b611465611869565b6008805460ff191660011790557f62e78cea01bee320cd4e420270b5ea74000d11b0c9f74754ebdbfc544b05a25861149a3390565b6040516001600160a01b03909116815260200160405180910390a1565b816001600160a01b0316836001600160a01b0316036115185760405162461bcd60e51b815260206004820152601960248201527f4552433732313a20617070726f766520746f2063616c6c6572000000000000006044820152606401610672565b6001600160a01b03838116600081815260056020908152604080832094871680845294825291829020805460ff191686151590811790915591519182527f17307eab39ab6107e8899845ad3d59bd9653f200f220920489ca2b5937696c31910160405180910390a3505050565b611590848484611083565b61159c848484846118b1565b610d425760405162461bcd60e51b81526004016106729061250b565b60606115c382610fac565b600082815260066020526040812080546115dc906123a8565b80601f0160208091040260200160405190810160405280929190818152602001828054611608906123a8565b80156116555780601f1061162a57610100808354040283529160200191611655565b820191906000526020600020905b81548152906001019060200180831161163857829003601f168201915b50505050509050600061167360408051602081019091526000815290565b90508051600003611685575092915050565b8151156116b757808260405160200161169f92919061255d565b60405160208183030381529060405292505050919050565b61126b846119b2565b6116c8611a26565b6008805460ff191690557f5db9ee0a495bf2e6ff9c91a7834c1ba4fdd244a5e8aa4e537bd38aeae4b073aa3361149a565b6000828152600260205260409020546001600160a01b03166117745760405162461bcd60e51b815260206004820152602e60248201527f45524337323155524953746f726167653a2055524920736574206f66206e6f6e60448201526d32bc34b9ba32b73a103a37b5b2b760911b6064820152608401610672565b600082815260066020526040902061178c82826125da565b506040518281527ff8e1a15aba9398e019f0b49df1a4fde98ee17ae345cb5f6b5e2c27f5033e8ce79060200160405180910390a15050565b610a23828260405180602001604052806000815250611a6f565b60006001600160e01b03198216637965db0b60e01b148061053f575061053f82611aa2565b61180d8282610ccb565b610a235761181a81611ac7565b611825836020611ad9565b60405160200161183692919061269a565b60408051601f198184030181529082905262461bcd60e51b82526106729160040161204c565b611864611869565b610d42565b60085460ff16156118af5760405162461bcd60e51b815260206004820152601060248201526f14185d5cd8589b194e881c185d5cd95960821b6044820152606401610672565b565b60006001600160a01b0384163b156119a757604051630a85bd0160e11b81526001600160a01b0385169063150b7a02906118f590339089908890889060040161270f565b6020604051808303816000875af1925050508015611930575060408051601f3d908101601f1916820190925261192d9181019061274c565b60015b61198d573d80801561195e576040519150601f19603f3d011682016040523d82523d6000602084013e611963565b606091505b5080516000036119855760405162461bcd60e51b81526004016106729061250b565b805181602001fd5b6001600160e01b031916630a85bd0160e11b14905061126b565b506001949350505050565b60606119bd82610fac565b60006119d460408051602081019091526000815290565b905060008151116119f45760405180602001604052806000815250611a1f565b806119fe84611c75565b604051602001611a0f92919061255d565b6040516020818303038152906040525b9392505050565b60085460ff166118af5760405162461bcd60e51b815260206004820152601460248201527314185d5cd8589b194e881b9bdd081c185d5cd95960621b6044820152606401610672565b611a798383611d08565b611a8660008484846118b1565b6107135760405162461bcd60e51b81526004016106729061250b565b60006001600160e01b03198216632483248360e11b148061053f575061053f82611ea1565b606061053f6001600160a01b03831660145b60606000611ae883600261248d565b611af3906002612769565b67ffffffffffffffff811115611b0b57611b0b6121d7565b6040519080825280601f01601f191660200182016040528015611b35576020820181803683370190505b509050600360fc1b81600081518110611b5057611b5061277c565b60200101906001600160f81b031916908160001a905350600f60fb1b81600181518110611b7f57611b7f61277c565b60200101906001600160f81b031916908160001a9053506000611ba384600261248d565b611bae906001612769565b90505b6001811115611c26576f181899199a1a9b1b9c1cb0b131b232b360811b85600f1660108110611be257611be261277c565b1a60f81b828281518110611bf857611bf861277c565b60200101906001600160f81b031916908160001a90535060049490941c93611c1f81612792565b9050611bb1565b508315611a1f5760405162461bcd60e51b815260206004820181905260248201527f537472696e67733a20686578206c656e67746820696e73756666696369656e746044820152606401610672565b60606000611c8283611ef1565b600101905060008167ffffffffffffffff811115611ca257611ca26121d7565b6040519080825280601f01601f191660200182016040528015611ccc576020820181803683370190505b5090508181016020015b600019016f181899199a1a9b1b9c1cb0b131b232b360811b600a86061a8153600a8504945084611cd657509392505050565b6001600160a01b038216611d5e5760405162461bcd60e51b815260206004820181905260248201527f4552433732313a206d696e7420746f20746865207a65726f20616464726573736044820152606401610672565b6000818152600260205260409020546001600160a01b031615611dc35760405162461bcd60e51b815260206004820152601c60248201527f4552433732313a20746f6b656e20616c7265616479206d696e746564000000006044820152606401610672565b611dd160008383600161185c565b6000818152600260205260409020546001600160a01b031615611e365760405162461bcd60e51b815260206004820152601c60248201527f4552433732313a20746f6b656e20616c7265616479206d696e746564000000006044820152606401610672565b6001600160a01b038216600081815260036020908152604080832080546001019055848352600290915280822080546001600160a01b0319168417905551839291907fddf252ad1be2c89b69c2b068fc378daa952ba7f163c4a11628f55a4df523b3ef908290a45050565b60006001600160e01b031982166380ac58cd60e01b1480611ed257506001600160e01b03198216635b5e139f60e01b145b8061053f57506301ffc9a760e01b6001600160e01b031983161461053f565b60008072184f03e93ff9f4daa797ed6e38ed64bf6a1f0160401b8310611f305772184f03e93ff9f4daa797ed6e38ed64bf6a1f0160401b830492506040015b6d04ee2d6d415b85acef81000000008310611f5c576d04ee2d6d415b85acef8100000000830492506020015b662386f26fc100008310611f7a57662386f26fc10000830492506010015b6305f5e1008310611f92576305f5e100830492506008015b6127108310611fa657612710830492506004015b60648310611fb8576064830492506002015b600a831061053f5760010192915050565b6001600160e01b03198116811461098157600080fd5b600060208284031215611ff157600080fd5b8135611a1f81611fc9565b60005b83811015612017578181015183820152602001611fff565b50506000910152565b60008151808452612038816020860160208601611ffc565b601f01601f19169290920160200192915050565b602081526000611a1f6020830184612020565b60006020828403121561207157600080fd5b5035919050565b80356001600160a01b038116811461208f57600080fd5b919050565b600080604083850312156120a757600080fd5b6120b083612078565b946020939093013593505050565b6000806000606084860312156120d357600080fd5b6120dc84612078565b92506120ea60208501612078565b9150604084013590509250925092565b6000806040838503121561210d57600080fd5b50508035926020909101359150565b6000806040838503121561212f57600080fd5b8235915061213f60208401612078565b90509250929050565b6000806040838503121561215b57600080fd5b61216483612078565b915060208301356001600160601b038116811461218057600080fd5b809150509250929050565b60006020828403121561219d57600080fd5b611a1f82612078565b600080604083850312156121b957600080fd5b6121c283612078565b91506020830135801515811461218057600080fd5b634e487b7160e01b600052604160045260246000fd5b600067ffffffffffffffff80841115612208576122086121d7565b604051601f8501601f19908116603f01168101908282118183101715612230576122306121d7565b8160405280935085815286868601111561224957600080fd5b858560208301376000602087830101525050509392505050565b6000806000806080858703121561227957600080fd5b61228285612078565b935061229060208601612078565b925060408501359150606085013567ffffffffffffffff8111156122b357600080fd5b8501601f810187136122c457600080fd5b6122d3878235602084016121ed565b91505092959194509250565b600082601f8301126122f057600080fd5b611a1f838335602085016121ed565b6000806040838503121561231257600080fd5b82359150602083013567ffffffffffffffff81111561233057600080fd5b61233c858286016122df565b9150509250929050565b6000806040838503121561235957600080fd5b61236283612078565b915061213f60208401612078565b6000806040838503121561238357600080fd5b61238c83612078565b9150602083013567ffffffffffffffff81111561233057600080fd5b600181811c908216806123bc57607f821691505b6020821081036123dc57634e487b7160e01b600052602260045260246000fd5b50919050565b60208082526028908201527f416e7465766f727461476f6c643a20476f6c6420746f6b656e20646f6573206e6040820152671bdd08195e1a5cdd60c21b606082015260800190565b6020808252602d908201527f4552433732313a2063616c6c6572206973206e6f7420746f6b656e206f776e6560408201526c1c881bdc88185c1c1c9bdd9959609a1b606082015260800190565b634e487b7160e01b600052601160045260246000fd5b808202811582820484141761053f5761053f612477565b6000826124c157634e487b7160e01b600052601260045260246000fd5b500490565b60208082526025908201527f4552433732313a207472616e736665722066726f6d20696e636f72726563742060408201526437bbb732b960d91b606082015260800190565b60208082526032908201527f4552433732313a207472616e7366657220746f206e6f6e20455243373231526560408201527131b2b4bb32b91034b6b83632b6b2b73a32b960711b606082015260800190565b6000835161256f818460208801611ffc565b835190830190612583818360208801611ffc565b01949350505050565b601f82111561071357600081815260208120601f850160051c810160208610156125b35750805b601f850160051c820191505b818110156125d2578281556001016125bf565b505050505050565b815167ffffffffffffffff8111156125f4576125f46121d7565b6126088161260284546123a8565b8461258c565b602080601f83116001811461263d57600084156126255750858301515b600019600386901b1c1916600185901b1785556125d2565b600085815260208120601f198616915b8281101561266c5788860151825594840194600190910190840161264d565b508582101561268a5787850151600019600388901b60f8161c191681555b5050505050600190811b01905550565b7f416363657373436f6e74726f6c3a206163636f756e74200000000000000000008152600083516126d2816017850160208801611ffc565b7001034b99036b4b9b9b4b733903937b6329607d1b6017918401918201528351612703816028840160208801611ffc565b01602801949350505050565b6001600160a01b038581168252841660208201526040810183905260806060820181905260009061274290830184612020565b9695505050505050565b60006020828403121561275e57600080fd5b8151611a1f81611fc9565b8082018082111561053f5761053f612477565b634e487b7160e01b600052603260045260246000fd5b6000816127a1576127a1612477565b50600019019056fea2646970667358221220e8f1248b36c58df1372104b0ab6b365901e16adf8bfecccfdb44da6642c566ec64736f6c63430008130033",
  "linkReferences": {},
  "deployedLinkReferences": {}
}